{
  "address": "0x5FbDB2315678afecb367f032d93F642f64180aa3",
  "abi": [
    {
      "inputs": [],
      "stateMutability": "nonpayable",
      "type": "constructor"
    },
    {
      "anonymous": false,
      "inputs": [
        {
          "indexed": true,
          "internalType": "address",
          "name": "owner",
          "type": "address"
        },
        {
          "indexed": true,
          "internalType": "address",
          "name": "spender",
          "type": "address"
        },
        {
          "indexed": false,
          "internalType": "uint256",
          "name": "value",
          "type": "uint256"
        }
      ],
      "name": "Approval",
      "type": "event"
    },
    {
      "anonymous": false,
      "inputs": [
        {
          "indexed": true,
          "internalType": "address",
          "name": "delegator",
          "type": "address"
        },
        {
          "indexed": true,
          "internalType": "address",
          "name": "delegatee",
          "type": "address"
        },
        {
          "indexed": false,
          "internalType": "enum IGovernancePowerDelegationToken.DelegationType",
          "name": "delegationType",
          "type": "uint8"
        }
      ],
      "name": "DelegateChanged",
      "type": "event"
    },
    {
      "anonymous": false,
      "inputs": [
        {
          "indexed": true,
          "internalType": "address",
          "name": "user",
          "type": "address"
        },
        {
          "indexed": false,
          "internalType": "uint256",
          "name": "amount",
          "type": "uint256"
        },
        {
          "indexed": false,
          "internalType": "enum IGovernancePowerDelegationToken.DelegationType",
          "name": "delegationType",
          "type": "uint8"
        }
      ],
      "name": "DelegatedPowerChanged",
      "type": "event"
    },
    {
      "anonymous": false,
      "inputs": [
        {
          "indexed": true,
          "internalType": "address",
          "name": "from",
          "type": "address"
        },
        {
          "indexed": true,
          "internalType": "address",
          "name": "to",
          "type": "address"
        },
        {
          "indexed": false,
          "internalType": "uint256",
          "name": "value",
          "type": "uint256"
        }
      ],
      "name": "Transfer",
      "type": "event"
    },
    {
      "inputs": [],
      "name": "DELEGATE_BY_TYPE_TYPEHASH",
      "outputs": [
        {
          "internalType": "bytes32",
          "name": "",
          "type": "bytes32"
        }
      ],
      "stateMutability": "view",
      "type": "function"
    },
    {
      "inputs": [],
      "name": "DELEGATE_TYPEHASH",
      "outputs": [
        {
          "internalType": "bytes32",
          "name": "",
          "type": "bytes32"
        }
      ],
      "stateMutability": "view",
      "type": "function"
    },
    {
      "inputs": [],
      "name": "DOMAIN_SEPARATOR",
      "outputs": [
        {
          "internalType": "bytes32",
          "name": "",
          "type": "bytes32"
        }
      ],
      "stateMutability": "view",
      "type": "function"
    },
    {
      "inputs": [],
      "name": "EIP712_REVISION",
      "outputs": [
        {
          "internalType": "bytes",
          "name": "",
          "type": "bytes"
        }
      ],
      "stateMutability": "view",
      "type": "function"
    },
    {
      "inputs": [],
      "name": "PERMIT_TYPEHASH",
      "outputs": [
        {
          "internalType": "bytes32",
          "name": "",
          "type": "bytes32"
        }
      ],
      "stateMutability": "view",
      "type": "function"
    },
    {
      "inputs": [],
      "name": "REVISION",
      "outputs": [
        {
          "internalType": "uint256",
          "name": "",
          "type": "uint256"
        }
      ],
      "stateMutability": "view",
      "type": "function"
    },
    {
      "inputs": [],
      "name": "_aaveGovernance",
      "outputs": [
        {
          "internalType": "contract ITransferHook",
          "name": "",
          "type": "address"
        }
      ],
      "stateMutability": "view",
      "type": "function"
    },
    {
      "inputs": [
        {
          "internalType": "address",
          "name": "",
          "type": "address"
        }
      ],
      "name": "_nonces",
      "outputs": [
        {
          "internalType": "uint256",
          "name": "",
          "type": "uint256"
        }
      ],
      "stateMutability": "view",
      "type": "function"
    },
    {
      "inputs": [
        {
          "internalType": "address",
          "name": "",
          "type": "address"
        },
        {
          "internalType": "uint256",
          "name": "",
          "type": "uint256"
        }
      ],
      "name": "_votingSnapshots",
      "outputs": [
        {
          "internalType": "uint128",
          "name": "blockNumber",
          "type": "uint128"
        },
        {
          "internalType": "uint128",
          "name": "value",
          "type": "uint128"
        }
      ],
      "stateMutability": "view",
      "type": "function"
    },
    {
      "inputs": [
        {
          "internalType": "address",
          "name": "",
          "type": "address"
        }
      ],
      "name": "_votingSnapshotsCounts",
      "outputs": [
        {
          "internalType": "uint256",
          "name": "",
          "type": "uint256"
        }
      ],
      "stateMutability": "view",
      "type": "function"
    },
    {
      "inputs": [
        {
          "internalType": "address",
          "name": "owner",
          "type": "address"
        },
        {
          "internalType": "address",
          "name": "spender",
          "type": "address"
        }
      ],
      "name": "allowance",
      "outputs": [
        {
          "internalType": "uint256",
          "name": "",
          "type": "uint256"
        }
      ],
      "stateMutability": "view",
      "type": "function"
    },
    {
      "inputs": [
        {
          "internalType": "address",
          "name": "spender",
          "type": "address"
        },
        {
          "internalType": "uint256",
          "name": "amount",
          "type": "uint256"
        }
      ],
      "name": "approve",
      "outputs": [
        {
          "internalType": "bool",
          "name": "",
          "type": "bool"
        }
      ],
      "stateMutability": "nonpayable",
      "type": "function"
    },
    {
      "inputs": [
        {
          "internalType": "address",
          "name": "account",
          "type": "address"
        }
      ],
      "name": "balanceOf",
      "outputs": [
        {
          "internalType": "uint256",
          "name": "",
          "type": "uint256"
        }
      ],
      "stateMutability": "view",
      "type": "function"
    },
    {
      "inputs": [],
      "name": "decimals",
      "outputs": [
        {
          "internalType": "uint8",
          "name": "",
          "type": "uint8"
        }
      ],
      "stateMutability": "view",
      "type": "function"
    },
    {
      "inputs": [
        {
          "internalType": "address",
          "name": "spender",
          "type": "address"
        },
        {
          "internalType": "uint256",
          "name": "subtractedValue",
          "type": "uint256"
        }
      ],
      "name": "decreaseAllowance",
      "outputs": [
        {
          "internalType": "bool",
          "name": "",
          "type": "bool"
        }
      ],
      "stateMutability": "nonpayable",
      "type": "function"
    },
    {
      "inputs": [
        {
          "internalType": "address",
          "name": "delegatee",
          "type": "address"
        }
      ],
      "name": "delegate",
      "outputs": [],
      "stateMutability": "nonpayable",
      "type": "function"
    },
    {
      "inputs": [
        {
          "internalType": "address",
          "name": "delegatee",
          "type": "address"
        },
        {
          "internalType": "uint256",
          "name": "nonce",
          "type": "uint256"
        },
        {
          "internalType": "uint256",
          "name": "expiry",
          "type": "uint256"
        },
        {
          "internalType": "uint8",
          "name": "v",
          "type": "uint8"
        },
        {
          "internalType": "bytes32",
          "name": "r",
          "type": "bytes32"
        },
        {
          "internalType": "bytes32",
          "name": "s",
          "type": "bytes32"
        }
      ],
      "name": "delegateBySig",
      "outputs": [],
      "stateMutability": "nonpayable",
      "type": "function"
    },
    {
      "inputs": [
        {
          "internalType": "address",
          "name": "delegatee",
          "type": "address"
        },
        {
          "internalType": "enum IGovernancePowerDelegationToken.DelegationType",
          "name": "delegationType",
          "type": "uint8"
        }
      ],
      "name": "delegateByType",
      "outputs": [],
      "stateMutability": "nonpayable",
      "type": "function"
    },
    {
      "inputs": [
        {
          "internalType": "address",
          "name": "delegatee",
          "type": "address"
        },
        {
          "internalType": "enum IGovernancePowerDelegationToken.DelegationType",
          "name": "delegationType",
          "type": "uint8"
        },
        {
          "internalType": "uint256",
          "name": "nonce",
          "type": "uint256"
        },
        {
          "internalType": "uint256",
          "name": "expiry",
          "type": "uint256"
        },
        {
          "internalType": "uint8",
          "name": "v",
          "type": "uint8"
        },
        {
          "internalType": "bytes32",
          "name": "r",
          "type": "bytes32"
        },
        {
          "internalType": "bytes32",
          "name": "s",
          "type": "bytes32"
        }
      ],
      "name": "delegateByTypeBySig",
      "outputs": [],
      "stateMutability": "nonpayable",
      "type": "function"
    },
    {
      "inputs": [
        {
          "internalType": "address",
          "name": "delegator",
          "type": "address"
        },
        {
          "internalType": "enum IGovernancePowerDelegationToken.DelegationType",
          "name": "delegationType",
          "type": "uint8"
        }
      ],
      "name": "getDelegateeByType",
      "outputs": [
        {
          "internalType": "address",
          "name": "",
          "type": "address"
        }
      ],
      "stateMutability": "view",
      "type": "function"
    },
    {
      "inputs": [
        {
          "internalType": "address",
          "name": "user",
          "type": "address"
        },
        {
          "internalType": "uint256",
          "name": "blockNumber",
          "type": "uint256"
        },
        {
          "internalType": "enum IGovernancePowerDelegationToken.DelegationType",
          "name": "delegationType",
          "type": "uint8"
        }
      ],
      "name": "getPowerAtBlock",
      "outputs": [
        {
          "internalType": "uint256",
          "name": "",
          "type": "uint256"
        }
      ],
      "stateMutability": "view",
      "type": "function"
    },
    {
      "inputs": [
        {
          "internalType": "address",
          "name": "user",
          "type": "address"
        },
        {
          "internalType": "enum IGovernancePowerDelegationToken.DelegationType",
          "name": "delegationType",
          "type": "uint8"
        }
      ],
      "name": "getPowerCurrent",
      "outputs": [
        {
          "internalType": "uint256",
          "name": "",
          "type": "uint256"
        }
      ],
      "stateMutability": "view",
      "type": "function"
    },
    {
      "inputs": [
        {
          "internalType": "address",
          "name": "spender",
          "type": "address"
        },
        {
          "internalType": "uint256",
          "name": "addedValue",
          "type": "uint256"
        }
      ],
      "name": "increaseAllowance",
      "outputs": [
        {
          "internalType": "bool",
          "name": "",
          "type": "bool"
        }
      ],
      "stateMutability": "nonpayable",
      "type": "function"
    },
    {
      "inputs": [],
      "name": "initialize",
      "outputs": [],
      "stateMutability": "nonpayable",
      "type": "function"
    },
    {
      "inputs": [],
      "name": "name",
      "outputs": [
        {
          "internalType": "string",
          "name": "",
          "type": "string"
        }
      ],
      "stateMutability": "view",
      "type": "function"
    },
    {
      "inputs": [
        {
          "internalType": "address",
          "name": "owner",
          "type": "address"
        },
        {
          "internalType": "address",
          "name": "spender",
          "type": "address"
        },
        {
          "internalType": "uint256",
          "name": "value",
          "type": "uint256"
        },
        {
          "internalType": "uint256",
          "name": "deadline",
          "type": "uint256"
        },
        {
          "internalType": "uint8",
          "name": "v",
          "type": "uint8"
        },
        {
          "internalType": "bytes32",
          "name": "r",
          "type": "bytes32"
        },
        {
          "internalType": "bytes32",
          "name": "s",
          "type": "bytes32"
        }
      ],
      "name": "permit",
      "outputs": [],
      "stateMutability": "nonpayable",
      "type": "function"
    },
    {
      "inputs": [],
      "name": "symbol",
      "outputs": [
        {
          "internalType": "string",
          "name": "",
          "type": "string"
        }
      ],
      "stateMutability": "view",
      "type": "function"
    },
    {
      "inputs": [],
      "name": "totalSupply",
      "outputs": [
        {
          "internalType": "uint256",
          "name": "",
          "type": "uint256"
        }
      ],
      "stateMutability": "view",
      "type": "function"
    },
    {
      "inputs": [
        {
          "internalType": "uint256",
          "name": "blockNumber",
          "type": "uint256"
        }
      ],
      "name": "totalSupplyAt",
      "outputs": [
        {
          "internalType": "uint256",
          "name": "",
          "type": "uint256"
        }
      ],
      "stateMutability": "view",
      "type": "function"
    },
    {
      "inputs": [
        {
          "internalType": "address",
          "name": "recipient",
          "type": "address"
        },
        {
          "internalType": "uint256",
          "name": "amount",
          "type": "uint256"
        }
      ],
      "name": "transfer",
      "outputs": [
        {
          "internalType": "bool",
          "name": "",
          "type": "bool"
        }
      ],
      "stateMutability": "nonpayable",
      "type": "function"
    },
    {
      "inputs": [
        {
          "internalType": "address",
          "name": "sender",
          "type": "address"
        },
        {
          "internalType": "address",
          "name": "recipient",
          "type": "address"
        },
        {
          "internalType": "uint256",
          "name": "amount",
          "type": "uint256"
        }
      ],
      "name": "transferFrom",
      "outputs": [
        {
          "internalType": "bool",
          "name": "",
          "type": "bool"
        }
      ],
      "stateMutability": "nonpayable",
      "type": "function"
    }
  ],
  "transactionHash": "0xa9a12e1fabcba3a629fca197cf0bd5e97ce728c8bc86e216c0554a30fb639608",
  "args": [],
  "solcInputHash": "105ed00fd7427c6a1c9da2e9827796e5",
  "bytecode": "0x608060405260006006553480156200001657600080fd5b50604080518082018252600a81526920b0bb32902a37b5b2b760b11b6020808301918252835180850190945260048452634141564560e01b908401528151919291620000659160039162000091565b5080516200007b90600490602084019062000091565b50506005805460ff19166012179055506200013d565b828054600181600116156101000203166002900490600052602060002090601f016020900481019282620000c9576000855562000114565b82601f10620000e457805160ff191683800117855562000114565b8280016001018555821562000114579182015b8281111562000114578251825591602001919060010190620000f7565b506200012292915062000126565b5090565b5b8082111562000122576000815560010162000127565b611ec4806200014d6000396000f3fe608060405234801561001057600080fd5b50600436106101e55760003560e01c80638129fc1c1161010f578063c2ffbb91116100a2578063dc937e1c11610071578063dc937e1c14610632578063dd62ed3e14610661578063dde43cba1461068f578063f713d8a814610697576101e5565b8063c2ffbb911461055d578063c3863ada14610592578063c3cda5201461059a578063d505accf146105e1576101e5565b8063a9059cbb116100de578063a9059cbb146104d4578063aa9fbe0214610500578063b2f4201d14610508578063b9844d8d14610537576101e5565b80638129fc1c1461047b57806395d89b4114610483578063981b24d01461048b578063a457c2d7146104a8576101e5565b806339509351116101875780636f50458d116101565780636f50458d146103dc57806370a0823114610427578063781603761461044d5780637bb73c9714610455576101e5565b8063395093511461032557806341cbf54a146103515780635b3cc0cf146103595780635c19a95c146103b4576101e5565b806323b872dd116101c357806323b872dd146102c157806330adf81f146102f7578063313ce567146102ff5780633644e5151461031d576101e5565b806306fdde03146101ea578063095ea7b31461026757806318160ddd146102a7575b600080fd5b6101f26106e8565b6040805160208082528351818301528351919283929083019185019080838360005b8381101561022c578181015183820152602001610214565b50505050905090810190601f1680156102595780820380516001836020036101000a031916815260200191505b509250505060405180910390f35b6102936004803603604081101561027d57600080fd5b506001600160a01b03813516906020013561077e565b604080519115158252519081900360200190f35b6102af61079c565b60408051918252519081900360200190f35b610293600480360360608110156102d757600080fd5b506001600160a01b038135811691602081013590911690604001356107a2565b6102af610829565b61030761084d565b6040805160ff9092168252519081900360200190f35b6102af610856565b6102936004803603604081101561033b57600080fd5b506001600160a01b03813516906020013561085c565b6102af6108aa565b6103856004803603604081101561036f57600080fd5b506001600160a01b0381351690602001356108ce565b60405180836001600160801b03168152602001826001600160801b031681526020019250505060405180910390f35b6103da600480360360208110156103ca57600080fd5b50356001600160a01b03166108ff565b005b61040b600480360360408110156103f257600080fd5b5080356001600160a01b0316906020013560ff1661091a565b604080516001600160a01b039092168252519081900360200190f35b6102af6004803603602081101561043d57600080fd5b50356001600160a01b031661093c565b6101f2610957565b6102af6004803603602081101561046b57600080fd5b50356001600160a01b0316610974565b6103da610986565b6101f26109d7565b6102af600480360360208110156104a157600080fd5b5035610a38565b610293600480360360408110156104be57600080fd5b506001600160a01b038135169060200135610a42565b610293600480360360408110156104ea57600080fd5b506001600160a01b038135169060200135610aaa565b6102af610abe565b6102af6004803603604081101561051e57600080fd5b5080356001600160a01b0316906020013560ff16610ae2565b6102af6004803603602081101561054d57600080fd5b50356001600160a01b0316610b0a565b6102af6004803603606081101561057357600080fd5b5080356001600160a01b0316906020810135906040013560ff16610b1c565b61040b610b45565b6103da600480360360c08110156105b057600080fd5b506001600160a01b038135169060208101359060408101359060ff6060820135169060808101359060a00135610b54565b6103da600480360360e08110156105f757600080fd5b506001600160a01b03813581169160208101359091169060408101359060608101359060ff6080820135169060a08101359060c00135610d76565b6103da6004803603604081101561064857600080fd5b5080356001600160a01b0316906020013560ff16610fb2565b6102af6004803603604081101561067757600080fd5b506001600160a01b0381358116916020013516610fc1565b6102af610fec565b6103da600480360360e08110156106ad57600080fd5b506001600160a01b038135169060ff602082013581169160408101359160608201359160808101359091169060a08101359060c00135610ff1565b60038054604080516020601f60026000196101006001881615020190951694909404938401819004810282018101909252828152606093909290918301828280156107745780601f1061074957610100808354040283529160200191610774565b820191906000526020600020905b81548152906001019060200180831161075757829003601f168201915b5050505050905090565b600061079261078b611224565b8484611228565b5060015b92915050565b60025490565b60006107af848484611314565b61081f846107bb611224565b61081a85604051806060016040528060288152602001611dcb602891396001600160a01b038a166000908152600160205260408120906107f9611224565b6001600160a01b03168152602081019190915260400160002054919061146f565b611228565b5060019392505050565b7f6e71edae12b1b97f4d1f60370fef10105fa2faae0126114a169c64845d6126c981565b60055460ff1690565b603d5481565b6000610792610869611224565b8461081a856001600061087a611224565b6001600160a01b03908116825260208083019390935260409182016000908120918c168152925290205490611506565b7f9a9a49b990ba9bb39f8048c490a40ab25c18f55d208d5fbcf958261a9b48716d81565b603a6020908152600092835260408084209091529082529020546001600160801b0380821691600160801b90041682565b61090b33826000611567565b61091733826001611567565b50565b60008061092683611678565b9250505061093484826116b2565b949350505050565b6001600160a01b031660009081526020819052604090205490565b604051806040016040528060018152602001603160f81b81525081565b603b6020526000908152604090205481565b60006109906116dd565b905060065481116109d25760405162461bcd60e51b815260040180806020018281038252602e815260200180611df3602e913960400191505060405180910390fd5b600655565b60048054604080516020601f60026000196101006001881615020190951694909404938401819004810282018101909252828152606093909290918301828280156107745780601f1061074957610100808354040283529160200191610774565b600061079661079c565b6000610792610a4f611224565b8461081a85604051806060016040528060258152602001611e6a6025913960016000610a79611224565b6001600160a01b03908116825260208083019390935260409182016000908120918d1681529252902054919061146f565b6000610792610ab7611224565b8484611314565b7f10d8d059343739efce7dad10d09f0806da52b252b3e6a7951920d2d6ec4102e581565b6000806000610af084611678565b5091509150610b01828287436116e2565b95945050505050565b60396020526000908152604090205481565b6000806000610b2a84611678565b5091509150610b3b828288886116e2565b9695505050505050565b603c546001600160a01b031681565b604080517f9a9a49b990ba9bb39f8048c490a40ab25c18f55d208d5fbcf958261a9b48716d6020808301919091526001600160a01b038916828401526060820188905260808083018890528351808403909101815260a083018452805190820120603d5461190160f01b60c085015260c284015260e2808401829052845180850390910181526101028401808652815191840191909120600091829052610122850180875281905260ff891661014286015261016285018890526101828501879052945191949390926001926101a280840193601f198301929081900390910190855afa158015610c49573d6000803e3d6000fd5b5050604051601f1901519150506001600160a01b038116610ca5576040805162461bcd60e51b8152602060048201526011602482015270494e56414c49445f5349474e415455524560781b604482015290519081900360640190fd5b6001600160a01b03811660009081526039602052604090208054600181019091558814610d09576040805162461bcd60e51b815260206004820152600d60248201526c494e56414c49445f4e4f4e434560981b604482015290519081900360640190fd5b86421115610d53576040805162461bcd60e51b815260206004820152601260248201527124a72b20a624a22fa2ac2824a920aa24a7a760711b604482015290519081900360640190fd5b610d5f818a6000611567565b610d6b818a6001611567565b505050505050505050565b6001600160a01b038716610dc1576040805162461bcd60e51b815260206004820152600d60248201526c24a72b20a624a22fa7aba722a960991b604482015290519081900360640190fd5b83421115610e0b576040805162461bcd60e51b815260206004820152601260248201527124a72b20a624a22fa2ac2824a920aa24a7a760711b604482015290519081900360640190fd5b6001600160a01b03808816600081815260396020908152604080832054603d5482517f6e71edae12b1b97f4d1f60370fef10105fa2faae0126114a169c64845d6126c98186015280840196909652958c166060860152608085018b905260a0850181905260c08086018b90528251808703909101815260e08601835280519084012061190160f01b6101008701526101028601969096526101228086019690965281518086039096018652610142850180835286519684019690962093909552610162840180825283905260ff88166101828501526101a284018790526101c284018690525191926001926101e28083019392601f198301929081900390910190855afa158015610f20573d6000803e3d6000fd5b505050602060405103516001600160a01b0316896001600160a01b031614610f83576040805162461bcd60e51b8152602060048201526011602482015270494e56414c49445f5349474e415455524560781b604482015290519081900360640190fd5b610f8e826001611506565b6001600160a01b038a16600090815260396020526040902055610d6b898989611228565b610fbd338383611567565b5050565b6001600160a01b03918216600090815260016020908152604080832093909416825291909152205490565b600281565b60007f10d8d059343739efce7dad10d09f0806da52b252b3e6a7951920d2d6ec4102e58888600181111561102157fe5b604080516020808201959095526001600160a01b039093168382015260608301919091526080820189905260a08083018990528151808403909101815260c083018252805190840120603d5461190160f01b60e085015260e2840152610102808401829052825180850390910181526101228401808452815191860191909120600091829052610142850180855281905260ff8a1661016286015261018285018990526101a285018890529251919550919391926001926101c2808301939192601f198301929081900390910190855afa158015611103573d6000803e3d6000fd5b5050604051601f1901519150506001600160a01b03811661115f576040805162461bcd60e51b8152602060048201526011602482015270494e56414c49445f5349474e415455524560781b604482015290519081900360640190fd5b6001600160a01b038116600090815260396020526040902080546001810190915588146111c3576040805162461bcd60e51b815260206004820152600d60248201526c494e56414c49445f4e4f4e434560981b604482015290519081900360640190fd5b8642111561120d576040805162461bcd60e51b815260206004820152601260248201527124a72b20a624a22fa2ac2824a920aa24a7a760711b604482015290519081900360640190fd5b611218818b8b611567565b50505050505050505050565b3390565b6001600160a01b03831661126d5760405162461bcd60e51b8152600401808060200182810382526024815260200180611e466024913960400191505060405180910390fd5b6001600160a01b0382166112b25760405162461bcd60e51b8152600401808060200182810382526022815260200180611d836022913960400191505060405180910390fd5b6001600160a01b03808416600081815260016020908152604080832094871680845294825291829020859055815185815291517f8c5be1e5ebec7d5bd14f71427d1e84f3dd0314c0f7b2291e5b200ac8c7c3b9259281900390910190a3505050565b6001600160a01b0383166113595760405162461bcd60e51b8152600401808060200182810382526025815260200180611e216025913960400191505060405180910390fd5b6001600160a01b03821661139e5760405162461bcd60e51b8152600401808060200182810382526023815260200180611d606023913960400191505060405180910390fd5b6113a98383836118fd565b6113e681604051806060016040528060268152602001611da5602691396001600160a01b038616600090815260208190526040902054919061146f565b6001600160a01b0380851660009081526020819052604080822093909355908416815220546114159082611506565b6001600160a01b038084166000818152602081815260409182902094909455805185815290519193928716927fddf252ad1be2c89b69c2b068fc378daa952ba7f163c4a11628f55a4df523b3ef92918290030190a3505050565b600081848411156114fe5760405162461bcd60e51b81526004018080602001828103825283818151815260200191508051906020019080838360005b838110156114c35781810151838201526020016114ab565b50505050905090810190601f1680156114f05780820380516001836020036101000a031916815260200191505b509250505060405180910390fd5b505050900390565b600082820183811015611560576040805162461bcd60e51b815260206004820152601b60248201527f536166654d6174683a206164646974696f6e206f766572666c6f770000000000604482015290519081900360640190fd5b9392505050565b6001600160a01b0382166115b6576040805162461bcd60e51b8152602060048201526011602482015270494e56414c49445f44454c45474154454560781b604482015290519081900360640190fd5b60006115c182611678565b9250505060006115d08561093c565b905060006115de86846116b2565b6001600160a01b03878116600090815260208690526040902080546001600160a01b031916918816919091179055905061161a818684876119f0565b846001600160a01b0316866001600160a01b03167fe8d51c8e11bd570db1734c8ec775785330e77007feed45c43b608ef33ff914bd866040518082600181111561166057fe5b815260200191505060405180910390a3505050505050565b600080808084600181111561168957fe5b141561169f5750603a9150603b9050603e6116ab565b50603f91506040905060415b9193909250565b6001600160a01b03808316600090815260208390526040812054909116806115605783915050610796565b600290565b600043821115611730576040805162461bcd60e51b815260206004820152601460248201527324a72b20a624a22fa12627a1a5afa72aa6a122a960611b604482015290519081900360640190fd5b6001600160a01b0383166000908152602085905260409020548061175f576117578461093c565b915050610934565b6001600160a01b038416600090815260208781526040808320600019850184529091529020546001600160801b031683106117d2576001600160a01b038416600090815260208781526040808320600019909401835292905220546001600160801b03600160801b909104169050610934565b6001600160a01b0384166000908152602087815260408083208380529091529020546001600160801b031683101561180e576000915050610934565b600060001982015b818111156118c057600282820304810361182e611d48565b506001600160a01b038716600090815260208a815260408083208484528252918290208251808401909352546001600160801b03808216808552600160801b909204169183019190915287141561189857602001516001600160801b031694506109349350505050565b80516001600160801b03168711156118b2578193506118b9565b6001820392505b5050611816565b506001600160a01b0385166000908152602088815260408083209383529290522054600160801b90046001600160801b0316915050949350505050565b600061190a84603e6116b2565b9050600061191984603e6116b2565b905061192882828560006119f0565b60006119358660416116b2565b905060006119448660416116b2565b905061195382828760016119f0565b603c546001600160a01b031680156119e657806001600160a01b0316634a3931498989896040518463ffffffff1660e01b815260040180846001600160a01b03168152602001836001600160a01b031681526020018281526020019350505050600060405180830381600087803b1580156119cd57600080fd5b505af11580156119e1573d6000803e3d6000fd5b505050505b5050505050505050565b826001600160a01b0316846001600160a01b03161415611a0f57611bf9565b600080611a1b83611678565b5090925090506001600160a01b03861615611b0e576001600160a01b0386166000908152602082905260408120548015611a8c576001600160a01b03881660009081526020858152604080832060001985018452909152902054600160801b90046001600160801b03169150611a98565b611a958861093c565b91505b611aae84848a85611aa9818c611bff565b611c41565b6001600160a01b0388167fa0a19463ee116110c9b282012d9b65cc5522dc38a9520340cbaf3142e550127f611ae38489611bff565b8760405180838152602001826001811115611afa57fe5b81526020019250505060405180910390a250505b6001600160a01b03851615611bf6576001600160a01b0385166000908152602082905260408120548015611b79576001600160a01b03871660009081526020858152604080832060001985018452909152902054600160801b90046001600160801b03169150611b85565b611b828761093c565b91505b611b9684848985611aa9818c611506565b6001600160a01b0387167fa0a19463ee116110c9b282012d9b65cc5522dc38a9520340cbaf3142e550127f611bcb8489611506565b8760405180838152602001826001811115611be257fe5b81526020019250505060405180910390a250505b50505b50505050565b600061156083836040518060400160405280601e81526020017f536166654d6174683a207375627472616374696f6e206f766572666c6f77000081525061146f565b6001600160a01b03831660009081526020858152604080832054918890529091204391908115801590611c92575060001982016000908152602082905260409020546001600160801b038481169116145b15611cc7576000198201600090815260208290526040902080546001600160801b03808716600160801b0291161790556119e6565b6040805180820182526001600160801b038086168252868116602080840191825260008781528682528581209451855493518516600160801b029085166fffffffffffffffffffffffffffffffff1990941693909317909316919091179092556001600160a01b038916815290899052206001830190555050505050505050565b60408051808201909152600080825260208201529056fe45524332303a207472616e7366657220746f20746865207a65726f206164647265737345524332303a20617070726f766520746f20746865207a65726f206164647265737345524332303a207472616e7366657220616d6f756e7420657863656564732062616c616e636545524332303a207472616e7366657220616d6f756e74206578636565647320616c6c6f77616e6365436f6e747261637420696e7374616e63652068617320616c7265616479206265656e20696e697469616c697a656445524332303a207472616e736665722066726f6d20746865207a65726f206164647265737345524332303a20617070726f76652066726f6d20746865207a65726f206164647265737345524332303a2064656372656173656420616c6c6f77616e63652062656c6f77207a65726fa26469706673582212205cdf20bc751936a087a970fd2348063049163be4ef34793b7c1957aebdbc12eb64736f6c63430007050033",
  "devdoc": {
    "author": "Aave",
    "kind": "dev",
    "methods": {
      "allowance(address,address)": {
        "details": "See {IERC20-allowance}."
      },
      "approve(address,uint256)": {
        "details": "See {IERC20-approve}. Requirements: - `spender` cannot be the zero address."
      },
      "balanceOf(address)": {
        "details": "See {IERC20-balanceOf}."
      },
      "decimals()": {
        "details": "Returns the number of decimals used to get its user representation. For example, if `decimals` equals `2`, a balance of `505` tokens should be displayed to a user as `5,05` (`505 / 10 ** 2`). Tokens usually opt for a value of 18, imitating the relationship between Ether and Wei. This is the value {ERC20} uses, unless {_setupDecimals} is called. NOTE: This information is only used for _display_ purposes: it in no way affects any of the arithmetic of the contract, including {IERC20-balanceOf} and {IERC20-transfer}."
      },
      "decreaseAllowance(address,uint256)": {
        "details": "Atomically decreases the allowance granted to `spender` by the caller. This is an alternative to {approve} that can be used as a mitigation for problems described in {IERC20-approve}. Emits an {Approval} event indicating the updated allowance. Requirements: - `spender` cannot be the zero address. - `spender` must have allowance for the caller of at least `subtractedValue`."
      },
      "delegate(address)": {
        "details": "delegates all the powers to a specific user",
        "params": {
          "delegatee": "the user to which the power will be delegated*"
        }
      },
      "delegateBySig(address,uint256,uint256,uint8,bytes32,bytes32)": {
        "details": "Delegates power from signatory to `delegatee`",
        "params": {
          "delegatee": "The address to delegate votes to",
          "expiry": "The time at which to expire the signature",
          "nonce": "The contract state required to match the signature",
          "r": "Half of the ECDSA signature pair",
          "s": "Half of the ECDSA signature pair",
          "v": "The recovery byte of the signature"
        }
      },
      "delegateByType(address,uint8)": {
        "details": "delegates one specific power to a delegatee",
        "params": {
          "delegatee": "the user which delegated power has changed",
          "delegationType": "the type of delegation (VOTING_POWER, PROPOSITION_POWER)*"
        }
      },
      "delegateByTypeBySig(address,uint8,uint256,uint256,uint8,bytes32,bytes32)": {
        "details": "Delegates power from signatory to `delegatee`",
        "params": {
          "delegatee": "The address to delegate votes to",
          "delegationType": "the type of delegation (VOTING_POWER, PROPOSITION_POWER)",
          "expiry": "The time at which to expire the signature",
          "nonce": "The contract state required to match the signature",
          "r": "Half of the ECDSA signature pair",
          "s": "Half of the ECDSA signature pair",
          "v": "The recovery byte of the signature"
        }
      },
      "getDelegateeByType(address,uint8)": {
        "details": "returns the delegatee of an user",
        "params": {
          "delegator": "the address of the delegator*"
        }
      },
      "getPowerAtBlock(address,uint256,uint8)": {
        "details": "returns the delegated power of a user at a certain block",
        "params": {
          "user": "the user*"
        }
      },
      "getPowerCurrent(address,uint8)": {
        "details": "returns the current delegated power of a user. The current power is the power delegated at the time of the last snapshot",
        "params": {
          "user": "the user*"
        }
      },
      "increaseAllowance(address,uint256)": {
        "details": "Atomically increases the allowance granted to `spender` by the caller. This is an alternative to {approve} that can be used as a mitigation for problems described in {IERC20-approve}. Emits an {Approval} event indicating the updated allowance. Requirements: - `spender` cannot be the zero address."
      },
      "initialize()": {
        "details": "initializes the contract upon assignment to the InitializableAdminUpgradeabilityProxy"
      },
      "name()": {
        "details": "Returns the name of the token."
      },
      "permit(address,address,uint256,uint256,uint8,bytes32,bytes32)": {
        "details": "implements the permit function as for https://github.com/ethereum/EIPs/blob/8a34d644aacf0f9f8f00815307fd7dd5da07655f/EIPS/eip-2612.md",
        "params": {
          "deadline": "the deadline timestamp, type(uint256).max for no deadline",
          "owner": "the owner of the funds",
          "r": "signature param",
          "s": "signature param",
          "spender": "the spender",
          "v": "signature param",
          "value": "the amount"
        }
      },
      "symbol()": {
        "details": "Returns the symbol of the token, usually a shorter version of the name."
      },
      "totalSupply()": {
        "details": "See {IERC20-totalSupply}."
      },
      "totalSupplyAt(uint256)": {
        "details": "returns the total supply at a certain block number used by the voting strategy contracts to calculate the total votes needed for threshold/quorum In this initial implementation with no AAVE minting, simply returns the current supply A snapshots mapping will need to be added in case a mint function is added to the AAVE token in the future*"
      },
      "transfer(address,uint256)": {
        "details": "See {IERC20-transfer}. Requirements: - `recipient` cannot be the zero address. - the caller must have a balance of at least `amount`."
      },
      "transferFrom(address,address,uint256)": {
        "details": "See {IERC20-transferFrom}. Emits an {Approval} event indicating the updated allowance. This is not required by the EIP. See the note at the beginning of {ERC20}; Requirements: - `sender` and `recipient` cannot be the zero address. - `sender` must have a balance of at least `amount`. - the caller must have allowance for ``sender``'s tokens of at least `amount`."
      }
    },
    "stateVariables": {
      "_aaveGovernance": {
        "details": "reference to the Aave governance contract to call (if initialized) on _beforeTokenTransfer !!! IMPORTANT The Aave governance is considered a trustable contract, being its responsibility to control all potential reentrancies by calling back the AaveToken"
      },
      "_nonces": {
        "details": "owner => next valid nonce to submit with permit()"
      }
    },
    "version": 1
  },
  "userdoc": {
    "kind": "user",
    "methods": {
      "DELEGATE_BY_TYPE_TYPEHASH()": {
        "notice": "The EIP-712 typehash for the delegation struct used by the contract"
      }
    },
    "notice": "implementation of the AAVE token contract",
    "version": 1
  },
  "storageLayout": {
    "storage": [
      {
        "astId": 532,
        "contract": "contracts/token/AaveTokenV2.sol:AaveTokenV2",
        "label": "_balances",
        "offset": 0,
        "slot": "0",
        "type": "t_mapping(t_address,t_uint256)"
      },
      {
        "astId": 538,
        "contract": "contracts/token/AaveTokenV2.sol:AaveTokenV2",
        "label": "_allowances",
        "offset": 0,
        "slot": "1",
        "type": "t_mapping(t_address,t_mapping(t_address,t_uint256))"
      },
      {
        "astId": 540,
        "contract": "contracts/token/AaveTokenV2.sol:AaveTokenV2",
        "label": "_totalSupply",
        "offset": 0,
        "slot": "2",
        "type": "t_uint256"
      },
      {
        "astId": 542,
        "contract": "contracts/token/AaveTokenV2.sol:AaveTokenV2",
        "label": "_name",
        "offset": 0,
        "slot": "3",
        "type": "t_string_storage"
      },
      {
        "astId": 544,
        "contract": "contracts/token/AaveTokenV2.sol:AaveTokenV2",
        "label": "_symbol",
        "offset": 0,
        "slot": "4",
        "type": "t_string_storage"
      },
      {
        "astId": 546,
        "contract": "contracts/token/AaveTokenV2.sol:AaveTokenV2",
        "label": "_decimals",
        "offset": 0,
        "slot": "5",
        "type": "t_uint8"
      },
      {
        "astId": 2742,
        "contract": "contracts/token/AaveTokenV2.sol:AaveTokenV2",
        "label": "lastInitializedRevision",
        "offset": 0,
        "slot": "6",
        "type": "t_uint256"
      },
      {
        "astId": 2773,
        "contract": "contracts/token/AaveTokenV2.sol:AaveTokenV2",
        "label": "______gap",
        "offset": 0,
        "slot": "7",
        "type": "t_array(t_uint256)50_storage"
      },
      {
        "astId": 1482,
        "contract": "contracts/token/AaveTokenV2.sol:AaveTokenV2",
        "label": "_nonces",
        "offset": 0,
        "slot": "57",
        "type": "t_mapping(t_address,t_uint256)"
      },
      {
        "astId": 1488,
        "contract": "contracts/token/AaveTokenV2.sol:AaveTokenV2",
        "label": "_votingSnapshots",
        "offset": 0,
        "slot": "58",
        "type": "t_mapping(t_address,t_mapping(t_uint256,t_struct(Snapshot)1973_storage))"
      },
      {
        "astId": 1492,
        "contract": "contracts/token/AaveTokenV2.sol:AaveTokenV2",
        "label": "_votingSnapshotsCounts",
        "offset": 0,
        "slot": "59",
        "type": "t_mapping(t_address,t_uint256)"
      },
      {
        "astId": 1495,
        "contract": "contracts/token/AaveTokenV2.sol:AaveTokenV2",
        "label": "_aaveGovernance",
        "offset": 0,
        "slot": "60",
        "type": "t_contract(ITransferHook)189"
      },
      {
        "astId": 1497,
        "contract": "contracts/token/AaveTokenV2.sol:AaveTokenV2",
        "label": "DOMAIN_SEPARATOR",
        "offset": 0,
        "slot": "61",
        "type": "t_bytes32"
      },
      {
        "astId": 1517,
        "contract": "contracts/token/AaveTokenV2.sol:AaveTokenV2",
        "label": "_votingDelegates",
        "offset": 0,
        "slot": "62",
        "type": "t_mapping(t_address,t_address)"
      },
      {
        "astId": 1523,
        "contract": "contracts/token/AaveTokenV2.sol:AaveTokenV2",
        "label": "_propositionPowerSnapshots",
        "offset": 0,
        "slot": "63",
        "type": "t_mapping(t_address,t_mapping(t_uint256,t_struct(Snapshot)1973_storage))"
      },
      {
        "astId": 1527,
        "contract": "contracts/token/AaveTokenV2.sol:AaveTokenV2",
        "label": "_propositionPowerSnapshotsCounts",
        "offset": 0,
        "slot": "64",
        "type": "t_mapping(t_address,t_uint256)"
      },
      {
        "astId": 1531,
        "contract": "contracts/token/AaveTokenV2.sol:AaveTokenV2",
        "label": "_propositionPowerDelegates",
        "offset": 0,
        "slot": "65",
        "type": "t_mapping(t_address,t_address)"
      }
    ],
    "types": {
      "t_address": {
        "encoding": "inplace",
        "label": "address",
        "numberOfBytes": "20"
      },
      "t_array(t_uint256)50_storage": {
        "base": "t_uint256",
        "encoding": "inplace",
        "label": "uint256[50]",
        "numberOfBytes": "1600"
      },
      "t_bytes32": {
        "encoding": "inplace",
        "label": "bytes32",
        "numberOfBytes": "32"
      },
      "t_contract(ITransferHook)189": {
        "encoding": "inplace",
        "label": "contract ITransferHook",
        "numberOfBytes": "20"
      },
      "t_mapping(t_address,t_address)": {
        "encoding": "mapping",
        "key": "t_address",
        "label": "mapping(address => address)",
        "numberOfBytes": "32",
        "value": "t_address"
      },
      "t_mapping(t_address,t_mapping(t_address,t_uint256))": {
        "encoding": "mapping",
        "key": "t_address",
        "label": "mapping(address => mapping(address => uint256))",
        "numberOfBytes": "32",
        "value": "t_mapping(t_address,t_uint256)"
      },
      "t_mapping(t_address,t_mapping(t_uint256,t_struct(Snapshot)1973_storage))": {
        "encoding": "mapping",
        "key": "t_address",
        "label": "mapping(address => mapping(uint256 => struct GovernancePowerDelegationERC20.Snapshot))",
        "numberOfBytes": "32",
        "value": "t_mapping(t_uint256,t_struct(Snapshot)1973_storage)"
      },
      "t_mapping(t_address,t_uint256)": {
        "encoding": "mapping",
        "key": "t_address",
        "label": "mapping(address => uint256)",
        "numberOfBytes": "32",
        "value": "t_uint256"
      },
      "t_mapping(t_uint256,t_struct(Snapshot)1973_storage)": {
        "encoding": "mapping",
        "key": "t_uint256",
        "label": "mapping(uint256 => struct GovernancePowerDelegationERC20.Snapshot)",
        "numberOfBytes": "32",
        "value": "t_struct(Snapshot)1973_storage"
      },
      "t_string_storage": {
        "encoding": "bytes",
        "label": "string",
        "numberOfBytes": "32"
      },
      "t_struct(Snapshot)1973_storage": {
        "encoding": "inplace",
        "label": "struct GovernancePowerDelegationERC20.Snapshot",
        "members": [
          {
            "astId": 1970,
            "contract": "contracts/token/AaveTokenV2.sol:AaveTokenV2",
            "label": "blockNumber",
            "offset": 0,
            "slot": "0",
            "type": "t_uint128"
          },
          {
            "astId": 1972,
            "contract": "contracts/token/AaveTokenV2.sol:AaveTokenV2",
            "label": "value",
            "offset": 16,
            "slot": "0",
            "type": "t_uint128"
          }
        ],
        "numberOfBytes": "32"
      },
      "t_uint128": {
        "encoding": "inplace",
        "label": "uint128",
        "numberOfBytes": "16"
      },
      "t_uint256": {
        "encoding": "inplace",
        "label": "uint256",
        "numberOfBytes": "32"
      },
      "t_uint8": {
        "encoding": "inplace",
        "label": "uint8",
        "numberOfBytes": "1"
      }
    }
  }
}